{
  "_format": "hh-sol-artifact-1",
  "contractName": "Authentication",
  "sourceName": "contracts/contract.sol",
  "abi": [
    {
      "anonymous": false,
      "inputs": [
        {
          "indexed": false,
          "internalType": "address",
          "name": "user",
          "type": "address"
        },
        {
          "indexed": false,
          "internalType": "string",
          "name": "username",
          "type": "string"
        }
      ],
      "name": "Registered",
      "type": "event"
    },
    {
      "inputs": [
        {
          "internalType": "string",
          "name": "_username",
          "type": "string"
        }
      ],
      "name": "getData",
      "outputs": [
        {
          "internalType": "bool",
          "name": "",
          "type": "bool"
        },
        {
          "internalType": "string",
          "name": "",
          "type": "string"
        },
        {
          "internalType": "string",
          "name": "",
          "type": "string"
        }
      ],
      "stateMutability": "view",
      "type": "function"
    },
    {
      "inputs": [
        {
          "internalType": "string",
          "name": "_username",
          "type": "string"
        },
        {
          "internalType": "string",
          "name": "_password",
          "type": "string"
        },
        {
          "internalType": "string",
          "name": "_name",
          "type": "string"
        }
      ],
      "name": "register",
      "outputs": [
        {
          "internalType": "bool",
          "name": "",
          "type": "bool"
        }
      ],
      "stateMutability": "nonpayable",
      "type": "function"
    },
    {
      "inputs": [
        {
          "internalType": "string",
          "name": "",
          "type": "string"
        }
      ],
      "name": "registered",
      "outputs": [
        {
          "internalType": "bool",
          "name": "",
          "type": "bool"
        }
      ],
      "stateMutability": "view",
      "type": "function"
    },
    {
      "inputs": [
        {
          "internalType": "string",
          "name": "",
          "type": "string"
        }
      ],
      "name": "userName",
      "outputs": [
        {
          "internalType": "string",
          "name": "",
          "type": "string"
        }
      ],
      "stateMutability": "view",
      "type": "function"
    },
    {
      "inputs": [
        {
          "internalType": "string",
          "name": "",
          "type": "string"
        }
      ],
      "name": "userPasswords",
      "outputs": [
        {
          "internalType": "string",
          "name": "",
          "type": "string"
        }
      ],
      "stateMutability": "view",
      "type": "function"
    }
  ],
  "bytecode": "0x6080604052348015600f57600080fd5b50610e248061001f6000396000f3fe608060405234801561001057600080fd5b50600436106100575760003560e01c80634cd08d031461005c5780635d2d5c371461008c57806364664156146100bc578063ae55c888146100ec578063bcf267701461011e575b600080fd5b6100766004803603810190610071919061075e565b61014e565b6040516100839190610820565b60405180910390f35b6100a660048036038101906100a1919061083b565b61028f565b6040516100b39190610820565b60405180910390f35b6100d660048036038101906100d1919061083b565b6102c5565b6040516100e39190610903565b60405180910390f35b6101066004803603810190610101919061083b565b61037b565b60405161011593929190610925565b60405180910390f35b6101386004803603810190610133919061083b565b61054e565b6040516101459190610903565b60405180910390f35b600060028460405161016091906109a6565b908152602001604051809103902060009054906101000a900460ff16156101bc576040517f08c379a00000000000000000000000000000000000000000000000000000000081526004016101b390610a09565b60405180910390fd5b826000856040516101cd91906109a6565b908152602001604051809103902090816101e79190610c3f565b50816001856040516101f991906109a6565b908152602001604051809103902090816102139190610c3f565b50600160028560405161022691906109a6565b908152602001604051809103902060006101000a81548160ff0219169083151502179055507fb3eccf73f39b1c07947c780b2b39df2a1bb058b4037b0a42d0881ca1a028a132338560405161027c929190610d52565b60405180910390a1600190509392505050565b6002818051602081018201805184825260208301602085012081835280955050505050506000915054906101000a900460ff1681565b60018180516020810182018051848252602083016020850120818352809550505050505060009150905080546102fa90610a58565b80601f016020809104026020016040519081016040528092919081815260200182805461032690610a58565b80156103735780601f1061034857610100808354040283529160200191610373565b820191906000526020600020905b81548152906001019060200180831161035657829003601f168201915b505050505081565b600060608060028460405161039091906109a6565b908152602001604051809103902060009054906101000a900460ff166103eb576040517f08c379a00000000000000000000000000000000000000000000000000000000081526004016103e290610dce565b60405180910390fd5b60016000856040516103fd91906109a6565b908152602001604051809103902060018660405161041b91906109a6565b908152602001604051809103902081805461043590610a58565b80601f016020809104026020016040519081016040528092919081815260200182805461046190610a58565b80156104ae5780601f10610483576101008083540402835291602001916104ae565b820191906000526020600020905b81548152906001019060200180831161049157829003601f168201915b505050505091508080546104c190610a58565b80601f01602080910402602001604051908101604052809291908181526020018280546104ed90610a58565b801561053a5780601f1061050f5761010080835404028352916020019161053a565b820191906000526020600020905b81548152906001019060200180831161051d57829003601f168201915b505050505090509250925092509193909250565b600081805160208101820180518482526020830160208501208183528095505050505050600091509050805461058390610a58565b80601f01602080910402602001604051908101604052809291908181526020018280546105af90610a58565b80156105fc5780601f106105d1576101008083540402835291602001916105fc565b820191906000526020600020905b8154815290600101906020018083116105df57829003601f168201915b505050505081565b6000604051905090565b600080fd5b600080fd5b600080fd5b600080fd5b6000601f19601f8301169050919050565b7f4e487b7100000000000000000000000000000000000000000000000000000000600052604160045260246000fd5b61066b82610622565b810181811067ffffffffffffffff8211171561068a57610689610633565b5b80604052505050565b600061069d610604565b90506106a98282610662565b919050565b600067ffffffffffffffff8211156106c9576106c8610633565b5b6106d282610622565b9050602081019050919050565b82818337600083830152505050565b60006107016106fc846106ae565b610693565b90508281526020810184848401111561071d5761071c61061d565b5b6107288482856106df565b509392505050565b600082601f83011261074557610744610618565b5b81356107558482602086016106ee565b91505092915050565b6000806000606084860312156107775761077661060e565b5b600084013567ffffffffffffffff81111561079557610794610613565b5b6107a186828701610730565b935050602084013567ffffffffffffffff8111156107c2576107c1610613565b5b6107ce86828701610730565b925050604084013567ffffffffffffffff8111156107ef576107ee610613565b5b6107fb86828701610730565b9150509250925092565b60008115159050919050565b61081a81610805565b82525050565b60006020820190506108356000830184610811565b92915050565b6000602082840312156108515761085061060e565b5b600082013567ffffffffffffffff81111561086f5761086e610613565b5b61087b84828501610730565b91505092915050565b600081519050919050565b600082825260208201905092915050565b60005b838110156108be5780820151818401526020810190506108a3565b60008484015250505050565b60006108d582610884565b6108df818561088f565b93506108ef8185602086016108a0565b6108f881610622565b840191505092915050565b6000602082019050818103600083015261091d81846108ca565b905092915050565b600060608201905061093a6000830186610811565b818103602083015261094c81856108ca565b9050818103604083015261096081846108ca565b9050949350505050565b600081905092915050565b600061098082610884565b61098a818561096a565b935061099a8185602086016108a0565b80840191505092915050565b60006109b28284610975565b915081905092915050565b7f416c726561647920726567697374657265640000000000000000000000000000600082015250565b60006109f360128361088f565b91506109fe826109bd565b602082019050919050565b60006020820190508181036000830152610a22816109e6565b9050919050565b7f4e487b7100000000000000000000000000000000000000000000000000000000600052602260045260246000fd5b60006002820490506001821680610a7057607f821691505b602082108103610a8357610a82610a29565b5b50919050565b60008190508160005260206000209050919050565b60006020601f8301049050919050565b600082821b905092915050565b600060088302610aeb7fffffffffffffffffffffffffffffffffffffffffffffffffffffffffffffffff82610aae565b610af58683610aae565b95508019841693508086168417925050509392505050565b6000819050919050565b6000819050919050565b6000610b3c610b37610b3284610b0d565b610b17565b610b0d565b9050919050565b6000819050919050565b610b5683610b21565b610b6a610b6282610b43565b848454610abb565b825550505050565b600090565b610b7f610b72565b610b8a818484610b4d565b505050565b5b81811015610bae57610ba3600082610b77565b600181019050610b90565b5050565b601f821115610bf357610bc481610a89565b610bcd84610a9e565b81016020851015610bdc578190505b610bf0610be885610a9e565b830182610b8f565b50505b505050565b600082821c905092915050565b6000610c1660001984600802610bf8565b1980831691505092915050565b6000610c2f8383610c05565b9150826002028217905092915050565b610c4882610884565b67ffffffffffffffff811115610c6157610c60610633565b5b610c6b8254610a58565b610c76828285610bb2565b600060209050601f831160018114610ca95760008415610c97578287015190505b610ca18582610c23565b865550610d09565b601f198416610cb786610a89565b60005b82811015610cdf57848901518255600182019150602085019450602081019050610cba565b86831015610cfc5784890151610cf8601f891682610c05565b8355505b6001600288020188555050505b505050505050565b600073ffffffffffffffffffffffffffffffffffffffff82169050919050565b6000610d3c82610d11565b9050919050565b610d4c81610d31565b82525050565b6000604082019050610d676000830185610d43565b8181036020830152610d7981846108ca565b90509392505050565b7f55736572206e6f74207265676973746572656400000000000000000000000000600082015250565b6000610db860138361088f565b9150610dc382610d82565b602082019050919050565b60006020820190508181036000830152610de781610dab565b905091905056fea26469706673582212208bdd0c559e2faeb78feeb41d1dc3f05468dd40e42157e493259d9f74042c68a464736f6c634300081c0033",
  "linkReferences": {},
  "deployedLinkReferences": {}
}